#ifndef BTCR_DID_JSONTESTDATA_H
#define BTCR_DID_JSONTESTDATA_H

// Collect all the json test data to be used as input strings for parsing

static const char get_tx_unspent_data_fail[] =
        "{\n"
        "  \"status\" : \"fail\",\n"
        "  \"data\" : {\n"
        "    \"network\" : \"Network is required (DOGE, DOGETEST, ...)\",\n"
        "    \"address\" : \"Valid address or Short required\",\n"
        "    \"after_tx\" : \"Get unspent transactions after this transaction ID.\"\n"
        "  }\n"
        "}";

static const char get_tx_unspent_data_success[] =
        "{\n"
        "  \"status\" : \"success\",\n"
        "  \"data\" : {\n"
        "    \"network\" : \"BTCTEST\",\n"
        "    \"address\" : \"mr85paFJtFCJyHfyHPeaftU4ytNvNGRSwy\",\n"
        "    \"txs\" : [\n"
        "      {\n"
        "        \"txid\" : \"2ee994e55b8c71a6f4025a04ebec08aeaffc42c914a9a3646cb3e35489d0e705\",\n"
        "        \"output_no\" : 0,\n"
        "        \"script_asm\" : \"OP_DUP OP_HASH160 7456195c1c326236f3a5bc17bdd868ce45ccdad8 OP_EQUALVERIFY OP_CHECKSIG\",\n"
        "        \"script_hex\" : \"76a9147456195c1c326236f3a5bc17bdd868ce45ccdad888ac\",\n"
        "        \"value\" : \"0.16250000\",\n"
        "        \"confirmations\" : 1924,\n"
        "        \"time\" : 1520470152\n"
        "      },\n"
        "      {\n"
        "        \"txid\" : \"2ee994e55b8c71a6f4025a04ebec08aeaffc42c914a9a3646cb3e35489d0e706\",\n"
        "        \"output_no\" : 1,\n"
        "        \"script_asm\" : \"OP_DUP OP_HASH160 7456195c1c326236f3a5bc17bdd868ce45ccdad8 OP_EQUALVERIFY OP_CHECKSIG\",\n"
        "        \"script_hex\" : \"76a9147456195c1c326236f3a5bc17bdd868ce45ccdad888ac\",\n"
        "        \"value\" : \"0.18250000\",\n"
        "        \"confirmations\" : 1924,\n"
        "        \"time\" : 1520470152\n"
        "      }\n"
        "    ]\n"
        "  }\n"
        "}";

static const char is_spent_data_fail[] =
        "{\n"
        "  \"status\" : \"fail\",\n"
        "  \"data\" : {\n"
        "    \"txid\" : \"Valid transaction ID/Hash is required\",\n"
        "    \"network\" : \"Network is required (DOGE, DOGETEST, ...)\",\n"
        "    \"output_no\" : \"Output number is required\"\n"
        "  }\n"
        "}";

static const char is_spent_data_true[] =
        "{\n"
        "  \"status\" : \"success\",\n"
        "  \"data\" : {\n"
        "    \"txid\" : \"e6b8eae524742c6d87f95d8037cbba2978db4b65a9005adce31c912c195d70e9\",\n"
        "    \"network\" : \"BTCTEST\",\n"
        "    \"output_no\" : 1,\n"
        "    \"is_spent\" : true,\n"
        "    \"spent\" : {\n"
        "      \"txid\" : \"cb0252c5ea4e24bee19edd1ed1338ef077dc75d30383097d8c4bae3a9862b35a\",\n"
        "      \"input_no\" : 0\n"
        "    }\n"
        "  }\n"
        "}";

static const char is_spent_data_false[] =
        "{\n"
        "  \"status\" : \"success\",\n"
        "  \"data\" : {\n"
        "    \"txid\" : \"e6b8eae524742c6d87f95d8037cbba2978db4b65a9005adce31c912c195d70e9\",\n"
        "    \"network\" : \"BTCTEST\",\n"
        "    \"output_no\" : 1,\n"
        "    \"is_spent\" : false\n"
        "  }\n"
        "}";

// this is an example result for the "get_tx" API call
// -> "https://chain.so/api/v2/get_tx/BTCTEST/cb0252c5ea4e24bee19edd1ed1338ef077dc75d30383097d8c4bae3a9862b35a"

static const char get_tx_data_opreturn_at_0[] =
        "{\n"
        "  \"status\" : \"success\",\n"
        "  \"data\" : {\n"
        "    \"network\" : \"BTCTEST\",\n"
        "    \"txid\" : \"cb0252c5ea4e24bee19edd1ed1338ef077dc75d30383097d8c4bae3a9862b35a\",\n"
        "    \"blockhash\" : \"000000000000002295c4fff526d48639b46045c87d130b300ddce51a29445d9b\",\n"
        "    \"confirmations\" : 27708,\n"
        "    \"time\" : 1532645330,\n"
        "    \"inputs\" : [\n"
        "      {\n"
        "        \"input_no\" : 0,\n"
        "        \"value\" : \"0.65000000\",\n"
        "        \"address\" : \"n1RTeBNRtEs1aNCMw9tuFs9ieWUFhCAzJs\",\n"
        "        \"type\" : \"pubkeyhash\",\n"
        "        \"script\" : \"304402205219fbc57b4806246fb57e9a7b582d4369f1292bd2f2348f8d2272b9bb923ad7022076f01bbdfd697c840865a7a9ce540a3927f4819cb6dfaaefdaa4f63c3330582e01 034e85ac999dd799a3e5d0149a240ad79472af9e8040bb77e0eae908661974dff6\",\n"
        "        \"witness\" : null,\n"
        "        \"from_output\" : {\n"
        "          \"txid\" : \"e6b8eae524742c6d87f95d8037cbba2978db4b65a9005adce31c912c195d70e9\",\n"
        "          \"output_no\" : 1\n"
        "        }\n"
        "      }\n"
        "    ],\n"
        "    \"outputs\" : [\n"
        "      {\n"
        "        \"output_no\" : 0,\n"
        "        \"value\" : \"0.00000000\",\n"
        "        \"address\" : \"nonstandard\",\n"
        "        \"type\" : \"nulldata\",\n"
        "        \"script\" : \"OP_RETURN 68747470733a2f2f7261772e67697468756275736572636f6e74656e742e636f6d2f64616e706170652f73656c662f6d61737465722f64646f2d6578742e302e6a736f6e6c64\"\n"
        "      },\n"
        "      {\n"
        "        \"output_no\" : 1,\n"
        "        \"value\" : \"0.64950000\",\n"
        "        \"address\" : \"mhN1QoyanMcBhAbpF8dJrXURc9HkJoDYrX\",\n"
        "        \"type\" : \"pubkeyhash\",\n"
        "        \"script\" : \"OP_DUP OP_HASH160 143f1c03a4c256a88a2334130a05ff38fc3e8f84 OP_EQUALVERIFY OP_CHECKSIG\"\n"
        "      }\n"
        "    ],\n"
        "    \"tx_hex\" : \"0200000001e9705d192c911ce3dc5a00a9654bdb7829bacb37805df9876d2c7424e5eab8e6010000006a47304402205219fbc57b4806246fb57e9a7b582d4369f1292bd2f2348f8d2272b9bb923ad7022076f01bbdfd697c840865a7a9ce540a3927f4819cb6dfaaefdaa4f63c3330582e0121034e85ac999dd799a3e5d0149a240ad79472af9e8040bb77e0eae908661974dff6ffffffff020000000000000000486a4668747470733a2f2f7261772e67697468756275736572636f6e74656e742e636f6d2f64616e706170652f73656c662f6d61737465722f64646f2d6578742e302e6a736f6e6c64f00edf03000000001976a914143f1c03a4c256a88a2334130a05ff38fc3e8f8488ac00000000\",\n"
        "    \"size\" : 272,\n"
        "    \"version\" : 2,\n"
        "    \"locktime\" : 0\n"
        "  }\n"
        "}";

static const char get_tx_data_opreturn_at_1[] =
        "{\n"
        "  \"status\" : \"success\",\n"
        "  \"data\" : {\n"
        "    \"network\" : \"BTCTEST\",\n"
        "    \"txid\" : \"cb0252c5ea4e24bee19edd1ed1338ef077dc75d30383097d8c4bae3a9862b35a\",\n"
        "    \"blockhash\" : \"000000000000002295c4fff526d48639b46045c87d130b300ddce51a29445d9b\",\n"
        "    \"confirmations\" : 27708,\n"
        "    \"time\" : 1532645330,\n"
        "    \"inputs\" : [\n"
        "      {\n"
        "        \"input_no\" : 0,\n"
        "        \"value\" : \"0.65000000\",\n"
        "        \"address\" : \"n1RTeBNRtEs1aNCMw9tuFs9ieWUFhCAzJs\",\n"
        "        \"type\" : \"pubkeyhash\",\n"
        "        \"script\" : \"304402205219fbc57b4806246fb57e9a7b582d4369f1292bd2f2348f8d2272b9bb923ad7022076f01bbdfd697c840865a7a9ce540a3927f4819cb6dfaaefdaa4f63c3330582e01 034e85ac999dd799a3e5d0149a240ad79472af9e8040bb77e0eae908661974dff6\",\n"
        "        \"witness\" : null,\n"
        "        \"from_output\" : {\n"
        "          \"txid\" : \"e6b8eae524742c6d87f95d8037cbba2978db4b65a9005adce31c912c195d70e9\",\n"
        "          \"output_no\" : 1\n"
        "        }\n"
        "      }\n"
        "    ],\n"
        "    \"outputs\" : [\n"
        "      {\n"
        "        \"output_no\" : 0,\n"
        "        \"value\" : \"0.64950000\",\n"
        "        \"address\" : \"mhN1QoyanMcBhAbpF8dJrXURc9HkJoDYrX\",\n"
        "        \"type\" : \"pubkeyhash\",\n"
        "        \"script\" : \"OP_DUP OP_HASH160 143f1c03a4c256a88a2334130a05ff38fc3e8f84 OP_EQUALVERIFY OP_CHECKSIG\"\n"
        "      },\n"
        "      {\n"
        "        \"output_no\" : 1,\n"
        "        \"value\" : \"0.00000000\",\n"
        "        \"address\" : \"nonstandard\",\n"
        "        \"type\" : \"nulldata\",\n"
        "        \"script\" : \"OP_RETURN 68747470733a2f2f7261772e67697468756275736572636f6e74656e742e636f6d2f64616e706170652f73656c662f6d61737465722f64646f2d6578742e302e6a736f6e6c64\"\n"
        "      }\n"
        "    ],\n"
        "    \"tx_hex\" : \"0200000001e9705d192c911ce3dc5a00a9654bdb7829bacb37805df9876d2c7424e5eab8e6010000006a47304402205219fbc57b4806246fb57e9a7b582d4369f1292bd2f2348f8d2272b9bb923ad7022076f01bbdfd697c840865a7a9ce540a3927f4819cb6dfaaefdaa4f63c3330582e0121034e85ac999dd799a3e5d0149a240ad79472af9e8040bb77e0eae908661974dff6ffffffff020000000000000000486a4668747470733a2f2f7261772e67697468756275736572636f6e74656e742e636f6d2f64616e706170652f73656c662f6d61737465722f64646f2d6578742e302e6a736f6e6c64f00edf03000000001976a914143f1c03a4c256a88a2334130a05ff38fc3e8f8488ac00000000\",\n"
        "    \"size\" : 272,\n"
        "    \"version\" : 2,\n"
        "    \"locktime\" : 0\n"
        "  }\n"
        "}";


#endif //BTCR_DID_JSONTESTDATA_H
